S01700005374616E6F6B204669726D776172652E7372656340
S1130000A4C00000C1C00000BFC00000BDC000000B
S1130010BBC00000B9C00000B7C00000B5C00000FC
S1130020B3C00000B1C00000AFC00000ADC000000C
S1130030ABC00000A9C00000A7C00000A5C000001C
S11300400C94DD0DA1C000009FC000009DC0000005
S11300500C949F0E99C000000C945A0F95C0000098
S113006093C0000091C000008FC000008DC000004C
S11300708BC0000089C0000087C0000085C000005C
S113008083C0000081C000007FC0000007634236C7
S1130090B79BD8A71A39685618AEBAAB558C1D3C15
S11300A0B7CC5763BD6DEDFD753EF6177231BF00D9
S11300B00000803F08000000BE922449123EABAA13
S11300C0AA2ABECDCCCC4C3E00000080BEABAAAA6E
S11300D0AA3E00000000BF000000803F00000000B6
S11300E000084178D3BB4387D1133D190E3CC3BDEF
S11300F04282AD2B3E68EC8276BED98FE1A93E4C9C
S113010080EFFFBE01C4FF7F3F00000000004E41AE
S11301104E494E495459494E46CDCCCC3D0AD7237D
S11301203C17B7D13877CC2B329595E6241FB14FC5
S11301300A000020410000C84200401C4620BCBE0A
S11301404CCA1B0E5AAEC59D740011241FBECFEFBE
S1130150D0E4DEBFCDBF11E0A0E0B1E0E4E9F3E319
S113016000E00BBF02C007900D92A031B107D9F790
S113017021E0A0E1B1E001C01D92A036B207E1F791
S11301800E94140C0C94C8193BCFCF93DF93CDB7C6
S1130190DEB7109227011092260110921F011092CF
S11301A01E01109244011092430180E991E0909362
S11301B01A01809319011092200110922E011092BD
S11301C045011092210110921D018EE096E090935A
S11301D02D0180932C0186ED96E09093300180935D
S11301E02F018AEA90E090932B0180932A01809159
S11301F02C0190912D0190934201809341018091B3
S11302002F019091300190931C0180931B018091E8
S11302102A0190912B0190932301809322010000E5
S1130220DF91CF910895CF93DF93CDB7DEB780915F
S11302303101882F90E08330910509F453C0843054
S113024091054CF481309105C1F082309105BCF4E4
S1130250892B89F048C08A359105A9F08B35910521
S11302601CF44C9771F03FC08B35910589F08C35A7
S1130270910591F038C026D236C0EFD234C034D4C0
S113028032C0AED530C081E0809321013BD62BC073
S11302901092210137D627C080914001882F90E029
S11302A081709927892B21F0109227011092260141
S11302B080914001882F90E082709927892B21F04A
S11302C010921F0110921E0180914001882F90E02E
S11302D084709927892B21F01092440110924301D4
S11302E011D601C000000000DF91CF9108958F92D4
S11302F09F92AF92BF92CF92DF92EF92FF92CF93F1
S1130300DF9300D000D000D0CDB7DEB79E838D83BD
S11303108D819E81FC018785882F90E088709927C4
S1130320892B51F42091190130911A018D819E81FC
S1130330FC013087278312C08D819E81FC01878157
S11303409085092E000CAA0BBB0BBC01CD010E94A9
S1130350DC13DC01CB01BC01CD016CD18D819E810C
S1130360FC018785882F90E081709927892B51F4AF
S113037020912601309127018D819E81FC013283D9
S1130380218314C080912101882381F48D819E8171
S1130390FC01218132818091260190912701280F4F
S11303A0391F8D819E81FC01328321838D819E8141
S11303B0FC018785882F90E082709927892B51F45E
S11303C020911E0130911F018D819E81FC01348397
S11303D0238314C080912101882381F48D819E811F
S11303E0FC012381348180911E0190911F01280F0B
S11303F0391F8D819E81FC01348323838D819E81ED
S1130400FC018785882F90E084709927892B51F40B
S113041020914301309144018D819E81FC013683FA
S1130420258314C080912101882381F48D819E81CC
S1130430FC01258136818091430190914401280F6C
S1130440391F8D819E81FC01368325838D819E8198
S1130450FC018785882F90E080729927892B59F4B5
S11304608D819E81FC018785882F90E08074992777
S1130470892B09F4A1C08D819E81FC018785882F79
S113048090E080729927892B51F4209126013091B4
S113049027018D819E81FC013487238713C08D81C0
S11304A09E81FC018785882F90E080749927892B91
S11304B049F420911E0130911F018D819E81FC0120
S11304C03687258720912601309127018D819E81D1
S11304D0FC0183859485A901481B590BCA01092E87
S11304E0000CAA0BBB0BBC01CD010E94DC13DC0188
S11304F0CB0120E030E040E050E4BC01CD010E949B
S1130500CB146B017C018091260190912701092E67
S1130510000CAA0BBB0BBC01CD010E94DC134B01E8
S11305205C018D819E81FC0185859685092E000CD8
S1130530AA0BBB0BBC01CD010E94DC13DC01CB0177
S11305409C01AD01C501B4010E94DC12DC01CB01A8
S113055020E030E040E050E4BC01CD010E94CB1427
S1130560DC01CB019C01AD01C701B6010E94DD1283
S1130570DC01CB01BC01CD010E943B15DC01CB01A8
S113058089839A83AB83BC8389819A81AB81BC8143
S1130590BC01CD010E941715DC01CB01BC01CD01CA
S11305A00E94A913DC01CB019C018D819E81FC0179
S11305B03287218700002CC08D819E81FC018785B4
S11305C0882F90E080719927892B11F18D819E816C
S11305D0FC01218132818D819E81FC01818592857E
S11305E0281B390B8D819E81FC01348723878D81E3
S11305F09E81FC01238134818D819E81FC01818552
S11306009285281B390B8D819E81FC0136872587B5
S1130610000026960FB6F894DEBF0FBECDBFDF9163
S1130620CF91FF90EF90DF90CF90BF90AF909F90CD
S11306308F900895CF93DF9300D000D0CDB7DEB76D
S113064069837A838B839C832DEC3CEC4CE45CE3E0
S113065069817A818B819C810E944113DC01CB01E9
S11306609C01AD0160E070E080E89FE30E944113CB
S1130670DC01CB0120E034E244E759E4BC01CD01C4
S11306800E946814DC01CB01BC01CD010E94A913B6
S1130690DC01CB01909351018093500169817A81EF
S11306A08B819C810E94A913DC01CB0190931A01D8
S11306B08093190100000F900F900F900F90DF911D
S11306C0CF910895CF93DF931F92CDB7DEB71982F0
S11306D08BE290E02BE230E0F90120812F7BFC01DA
S11306E0208382E290E022E230E0F90120812F7D34
S11306F0FC01208320913201309133018091260145
S1130700909127012817390739F12091320130914E
S1130710330180912601909127012817390714F499
S113072019820DC02091320130913301809126014C
S1130730909127018217930714F481E089838981BA
S1130740EED3813071F484E080931801809110011C
S113075081608093100105C08091100181608093B5
S11307601001209134013091350180911E01909146
S11307701F012817390739F12091340130913501CF
S113078080911E0190911F012817390714F41982D2
S11307900DC0209134013091350180911E0190915A
S11307A01F018217930714F481E0898389815FD440
S11307B0813071F485E0809318018091100182608A
S11307C08093100105C08091100182608093100114
S11307D02091360130913701809143019091440179
S11307E02817390739F1209136013091370180916A
S11307F04301909144012817390714F419820DC05C
S11308002091360130913701809143019091440148
S11308108217930714F481E089838981D0D48130CD
S113082071F486E0809318018091100184608093B4
S1130830100105C0809110018460809310018091A3
S11308401001873021F4109210015CD302C00E9481
S1130850430E0F90DF91CF910895CF93DF93CDB7DF
S1130860DEB72A970FB6F894DEBF0FBECDBF8BE27A
S113087090E02BE230E0F90120812F7BFC01208302
S113088082E290E022E230E0F90120812F7DFC0138
S113089020832091060130910701809126019091D7
S11308A027012817390761F42091080130910901C3
S11308B080911E0190911F012817390709F4F1C096
S11308C077D58130D1F410921101109212018091E8
S11308D02C0190912D0188519C4F90930701809396
S11308E0060180912F019091300188519C4F909383
S11308F009018093080106D3EEC0209128013091AC
S113090029018091260190912701A901481B590BC7
S1130910CA019A8389832091240130912501809111
S11309201E0190911F01F901E81BF90BCF019C8373
S11309308B83209132013091330180912601909173
S11309402701A901481B590BCA019E838D8320915D
S113095034013091350180911E0190911F01F901FC
S1130960E81BF90BCF0198878F838B819C81992396
S11309701CF4919581959109AC018D819E819923F7
S11309801CF4919581959109489F9001499F300DE0
S1130990589F300D112489819A8199231CF49195D3
S11309A081959109BC018F81988599231CF49195B7
S11309B081959109AC01649FC001659F900D749F5E
S11309C0900D1124A901481B590BCA019A878987E4
S11309D089859A85892B39F58D819E81181619068A
S11309E024F481E0809311010AC08D819E819923B2
S11309F01CF41092110103C082E0809311018F81D5
S1130A0098851816190624F481E08093120139C0E0
S1130A108F81988599231CF41092120132C082E0D0
S1130A20809312012EC089859A85181619069CF4A4
S1130A3082E0809312018D819E811816190624F498
S1130A4081E0809311011DC08D819E819923CCF496
S1130A501092120116C089859A85992394F482E034
S1130A60809311018F8198851816190624F481E06A
S1130A708093120106C08F819885992314F41092F3
S1130A801201809126019091270190930701809390
S1130A90060180911E0190911F019093090180939A
S1130AA0080180911101823041F08091110137D207
S1130AB0813019F484E0809318018091120182300E
S1130AC041F080911201D3D2813019F485E08093F2
S1130AD018010E94430E2A960FB6F894DEBF0FBE8B
S1130AE0CDBFDF91CF910895CF93DF9300D000D095
S1130AF000D0CDB7DEB78BE290E02BE230E0F90115
S1130B0020812F7BFC01208382E290E022E230E00E
S1130B10F90120812F7DFC01208320910A0130916D
S1130B200B0180912601909127012817390761F460
S1130B3020910C0130910D0180911E0190911F01B3
S1130B402817390709F42AC133D48130D1F410921B
S1130B500E0110920F0180912C0190912D0188516A
S1130B609C4F90930B0180930A0180912F019091E7
S1130B70300188519C4F90930D0180930C01C2D198
S1130B8026C182E080930E0182E080930F012091C0
S1130B9026013091270180913C0190913D01A901EA
S1130BA0481B590BCA019A83898320911E013091F5
S1130BB01F0180913E0190913F01F901E81BF90B5F
S1130BC0CF019C838B8349815A8189819A81489F73
S1130BD09001499F300D589F300D11246B817C8109
S1130BE04B815C81649FC001659F900D749F900D43
S1130BF01124280F391F60913A0170913B014091F3
S1130C003A0150913B01649FC001659F900D749F10
S1130C10900D1124A901481B590BCA019E838D8391
S1130C208D819E8199230CF453C089819A81181671
S1130C30190644F48B819C81181619061CF4109231
S1130C400F019CC089819A81181619063CF48B8186
S1130C509C8199231CF410920E0190C089819A8181
S1130C60992344F48B819C81992324F481E080931B
S1130C700F0184C089819A8199234CF48B819C81D2
S1130C801816190624F481E080930E0177C08B8135
S1130C909C811816190624F481E080930E016EC01D
S1130CA08B819C8199231CF410920E0167C0898169
S1130CB09A81181619061CF410920F015FC08981DD
S1130CC09A8199230CF05AC081E080930F0156C099
S1130CD08D819E8199230CF051C089819A811816C7
S1130CE019064CF48B819C811816190624F481E0B2
S1130CF080930E0143C089819A81181619063CF429
S1130D008B819C8199231CF410920F0137C0898137
S1130D109A8199233CF48B819C8199231CF4109231
S1130D200E012CC089819A8199234CF48B819C817A
S1130D301816190624F481E080930F011FC08B81DB
S1130D409C811816190624F481E080930E0116C0C4
S1130D508B819C8199231CF410920E010FC0898110
S1130D609A81181619061CF410920F0107C08B8182
S1130D709C8199231CF481E080930F0180912601CA
S1130D809091270190930B0180930A0180911E0199
S1130D9090911F0190930D0180930C0180910E019D
S1130DA0823041F080910E01BAD0813019F484E090
S1130DB08093180180910F01823041F080910F01DE
S1130DC056D1813019F485E0809318015CD72696BA
S1130DD00FB6F894DEBF0FBECDBFDF91CF9108955B
S1130DE0CF93DF93CDB7DEB78BE290E02BE230E018
S1130DF0F90120812F7BFC01208382E290E022E232
S1130E0030E0F90120812F7DFC01208380E087D030
S1130E10813029F48091130181608093130180E073
S1130E2026D1813029F480911301826080931301CB
S1130E3080E0C5D1813029F48091130184608093CE
S1130E40130180911301873021F45CD010921301B7
S1130E5001C019D7DF91CF910895AF92BF92CF927D
S1130E60DF92EF92FF920F931F93CF93DF93CDB74F
S1130E70DEB760970FB6F894DEBF0FBECDBFA98270
S1130E80BA82CB82DC82ED82FE820F8318872987A7
S1130E903A874B875C876D877E878F87988B81E045
S1130EA080931D01CE01019622DA20E1CE01019644
S1130EB0FC01A1E3B1E001900D922A95E1F7809144
S1130EC02601909127019093290180932801809114
S1130ED01E0190911F019093250180932401A3D9B1
S1130EE0000060960FB6F894DEBF0FBECDBFDF9151
S1130EF0CF911F910F91FF90EF90DF90CF90BF9013
S1130F00AF900895CF93DF93CDB7DEB710921D0154
S1130F10CBD60E945C120000DF91CF910895CF934D
S1130F20DF931F92CDB7DEB789838981882351F47B
S1130F3088E290E028E230E0F90120812062FC019F
S1130F40208309C088E290E028E230E0F9012081A2
S1130F502F7DFC0120838981813079F52091260140
S1130F60309127018091410190914201281739075E
S1130F7004F58BE290E02BE230E0F901308120E8C7
S1130F802327FC012083809114018F5F8093140137
S1130F9080911401883009F065C0809126019091F8
S1130FA02701019690932701809326011092140142
S1130FB059C01092140181E056C0809131018C31E6
S1130FC039F5809120018130F9F08BE290E02BE239
S1130FD030E0F901308120E82327FC01208380914F
S1130FE014018F5F80931401809114018830D1F52E
S1130FF08091260190912701019790932701809376
S11310002601109214012EC01092140181E02BC00D
S1131010809126019091270118161906FCF48BE2A1
S113102090E02BE230E0F901308120E82327FC0135
S11310302083809114018F5F8093140180911401A7
S1131040883081F480912601909127010197909333
S11310502701809326011092140104C010921401F8
S113106081E001C080E00F90DF91CF910895CF938C
S1131070DF931F92CDB7DEB789838981813051F424
S113108088E290E028E230E0F90120812068FC0148
S1131090208309C088E290E028E230E0F901208151
S11310A02F77FC0120838981813079F520911E01FD
S11310B030911F0180911B0190911C012817390761
S11310C004F588E290E028E230E0F901308120E480
S11310D02327FC012083809115018F5F80931501E4
S11310E080911501883009F065C080911E019091AE
S11310F01F01019690931F0180931E011092150108
S113110059C01092150181E056C0809131018C3193
S113111039F580912E018130F9F088E290E028E2DF
S113112030E0F901308120E42327FC012083809101
S113113015018F5F80931501809115018830D1F5D9
S113114080911E0190911F01019790931F0180933C
S11311501E01109215012EC01092150181E02BC0C2
S113116080911E0190911F0118161906FCF488E263
S113117090E028E230E0F901308120E42327FC01EB
S11311802083809115018F5F809315018091150153
S1131190883081F480911E0190911F0101979093F2
S11311A01F0180931E011092150104C010921501B5
S11311B081E001C080E00F90DF91CF910895CF933B
S11311C0DF931F92CDB7DEB789838981813051F4D3
S11311D085E290E025E230E0F90120812460FC0101
S11311E0208309C085E290E025E230E0F901208106
S11311F02B7FFC0120838981813079F52091430183
S113120030914401809122019091230128173907DC
S113121004F585E290E025E230E0F901308128E030
S11312202327FC012083809116018F5F8093160190
S113123080911601883009F065C080914301909136
S11312404401019690934401809343011092160146
S113125059C01092160181E056C0809131018C3141
S113126039F5809145018130F9F085E290E025E27D
S113127030E0F901308128E02327FC0120838091AC
S113128016018F5F80931601809116018830D1F585
S1131290809143019091440101979093440180937C
S11312A04301109216012EC01092160181E02BC04A
S11312B0809143019091440118161906FCF485E2CB
S11312C090E025E230E0F901308128E02327FC0199
S11312D02083809116018F5F8093160180911601FF
S11312E0883081F480914301909144010197909357
S11312F04401809343011092160104C01092160118
S113130081E001C080E00F90DF91CF910895CF93E9
S1131310DF93CDB7DEB78BE290E02BE230E0F9014A
S113132020812064FC01208382E290E022E230E00C
S1131330F90120812062FC012083E4DD0000DF91BB
S1131340CF910895CF93DF93CDB7DEB78BE290E0D2
S11313502BE230E0F90120812F77FC01208388E221
S113136090E028E230E0F90120812F7BFC0120830A
S113137085E290E025E230E0F9012081277FFC013D
S113138020838BE290E02BE230E0F901208120649D
S1131390FC01208382E290E022E230E0F901208126
S11313A02062FC012083AEDD0000DF91CF9108951F
S11313B0CF93DF93CDB7DEB7209132013091330163
S11313C0809126019091270128173907C1F42091B3
S11313D034013091350180911E0190911F0128172D
S11313E0390769F420913601309137018091430126
S11313F0909144012817390711F481E001C080E07D
S1131400DF91CF910895CF93DF93CDB7DEB780916D
S1131410260190912701909342018093410180918C
S11314201E0190911F0190931C0180931B010000E9
S1131430DF91CF910895CF93DF9300D01F92CDB762
S1131440DEB79A8389836B8389819A81FC018081C9
S1131450882F90E08734910521F08D34910551F067
S113146012C08B812FEF280F89819A810196622FF8
S113147011D009C08B812FEF280F89819A810196A1
S1131480622F9AD1000000000F900F900F90DF910F
S1131490CF910895AF92BF92CF92DF92EF92FF92D5
S11314A00F931F93CF93DF93CDB7DEB769970FB632
S11314B0F894DEBF0FBECDBF988F8F8B698F1F82CC
S11314C0198618861B861A861D861C861F861E860C
S11314D0198A188A1E8A8F89988DFC018081882F29
S11314E090E09A83898389819A81C0970A9708F04A
S11314F051C18F89988D0E94D8178F8388E590E019
S11315009C838B832B813C818F89988DB9010E94A8
S1131510FE179E838D838D819E81892BE1F08D81C1
S11315209E8101960E94D517DC01CB0120E030E0BA
S113153040E251E4BC01CD010E946814DC01CB01FE
S1131540BC01CD010E94A913DC01CB0199878887D6
S11315508E8981608E8B89E590E09C838B832B81BF
S11315603C818F89988DB9010E94FE179E838D83DB
S11315708D819E81892BE1F08D819E8101960E944F
S1131580D517DC01CB0120E030E040E251E4BC019E
S1131590CD010E946814DC01CB01BC01CD010E9485
S11315A0A913DC01CB019B878A878E8982608E8B8D
S11315B08AE590E09C838B832B813C818F89988D75
S11315C0B9010E94FE179E838D838D819E81892B94
S11315D0E1F08D819E8101960E94D517DC01CB013B
S11315E020E030E040E251E4BC01CD010E946814E7
S11315F0DC01CB01BC01CD010E94A913DC01CB01AC
S11316009D878C878E8984608E8B86E490E09C8392
S11316108B832B813C818F89988DB9010E94FE17A1
S11316209E838D838D819E81892BE1F08D819E81A6
S113163001960E94D517DC01CB0120E030E040E2A6
S113164051E4BC01CD010E946814DC01CB01BC0152
S1131650CD010E94A913DC01CB019F878E878E895F
S113166088608E8B82E590E09C838B832B813C8108
S11316708F89988DB9010E94FE179E838D838D8179
S11316809E81892BE1F08D819E8101960E94D51760
S1131690DC01CB0120E030E040E251E4BC01CD01AB
S11316A00E946814DC01CB01BC01CD010E94A91386
S11316B0DC01CB01998B888B8E8980618E8B89E4C8
S11316C090E09C838B832B813C818F89988DB90119
S11316D00E94FE179E838D838D819E81892BE1F06C
S11316E08D819E8101960E94D517DC01CB0120E0FB
S11316F030E040E251E4BC01CD010E946814DC01F9
S1131700CB01BC01CD010E94A913DC01CB019B8B51
S11317108A8B8E8980628E8B8AE490E09C838B8393
S11317202B813C818F89988DB9010E94FE179E837D
S11317308D838D819E81892BD9F08D819E81019627
S11317400E94D517DC01CB0120E030E040E251E4F7
S1131750BC01CD010E946814DC01CB01BC01CD01A8
S1131760F8D7DC01CB019D8B8C8B8E8980648E8BAA
S1131770AF80B884C984DA84EB84FC840D851E852B
S11317802F85388949895A896B897C898D899E89F5
S113179064DB01C0000069960FB6F894DEBF0FBE8B
S11317A0CDBFDF91CF911F910F91FF90EF90DF900C
S11317B0CF90BF90AF900895CF93DF9300D000D027
S11317C000D0CDB7DEB79D838C836E8319828C8164
S11317D09D81FC018081882F90E09B838A838A818C
S11317E09B81C0970A97B0F48C819D810E94D81781
S11317F089838981882F90E08233910549F080376D
S1131800910521F0429739F482DD05C09BDD03C0C8
S1131810FADD01C0000026960FB6F894DEBF0FBEB5
S1131820CDBFDF91CF910895CF93DF93CDB7DEB7CE
S113183016D010921801A0D080911701813019F4AC
S11318401092170190D580914E0190914F01892BF0
S113185091F380915601882371F744D3ECCFCF9351
S1131860DF93CDB7DEB781E290E021E230E0F90109
S113187020812061FC0120838AE290E02AE230E0AA
S1131880F90120812064FC01208381E290E021E2BF
S113189030E0F90120812062FC0120838AE290E09B
S11318A02AE230E0F90120812068FC01208387E2EC
S11318B090E027E230E0F90120812064FC012083DC
S11318C084E290E024E230E0F90120812860FC0108
S11318D0208387E290E027E230E0F9012081206252
S11318E0FC01208387E290E027E230E0F9012081C7
S11318F02068FC01208384E290E024E230E0F901D6
S113190020812460FC0120838BE290E02BE230E014
S1131910F90120812064FC01208382E290E022E22C
S113192030E0F90120812062FC01208388E290E00C
S113193028E230E0F90120812460FC01208388E260
S113194090E028E230E0F90120812860FC01208346
S113195088E290E028E230E0F90120812061FC0176
S1131960208304D1B2D10E94C5001092180178944A
S11319700000DF91CF910895CF93DF93CDB7DEB709
S113198086E290E0FC018081882F90E084709927A2
S1131990892B21F481E08093200102C01092200160
S11319A086E290E0FC018081882F90E0887099277E
S11319B0892B21F481E080932E0102C010922E0124
S11319C086E290E0FC018081882F90E08071992765
S11319D0892B21F481E08093450102C010924501D6
S11319E00000DF91CF910895CF93DF9300D0CDB75E
S11319F0DEB78AE080935901109258018091590111
S1131A00882F90E00E94B416909353018093520162
S1131A108091520190915301892BF9F01A82198215
S1131A2012C0209152013091530189819A81880F0B
S1131A30991F820F931FFC011182108289819A8160
S1131A4001969A83898380915901282F30E08981F6
S1131A509A812817390729F701C000000F900F90C9
S1131A60DF91CF910895CF93DF9300D0CDB7DEB748
S1131A709A83898380915801282F30E080915901FD
S1131A80882F90E001972817390711F480E017C0D8
S1131A90209152013091530180915801882F90E098
S1131AA0880F991F820F931F29813A81FC0131838A
S1131AB02083809158018F5F8093580181E00F90BB
S1131AC00F90DF91CF910895CF93DF9300D000D092
S1131AD0CDB7DEB780915801882309F43EC08091C8
S1131AE0520190915301FC01808191819C838B83ED
S1131AF0809158018150809358011A82198221C023
S1131B00209152013091530189819A81880F991F44
S1131B10820F931F409152015091530129813A81C0
S1131B202F5F3F4F220F331F240F351FF9012081F0
S1131B303181FC013183208389819A8101969A83C2
S1131B40898380915801282F30E089819A81281750
S1131B503907B1F68B819C8102C080E090E00F9040
S1131B600F900F900F90DF91CF910895CF93DF9353
S1131B70CDB7DEB710924D0110924C011092510175
S1131B801092500184E490E024E430E0F9012081D3
S1131B902260FC0120838EE690E02EE630E0F9011D
S1131BA020812260FC01208387E490E024E1FC0191
S1131BB020830000DF91CF9108951F920F9200902F
S1131BC05F000F92112400905B000F922F933F93BC
S1131BD04F935F936F937F938F939F93AF93BF9331
S1131BE0EF93FF93CF93DF93CDB7DEB780914C0192
S1131BF090914D01019690934D0180934C01209159
S1131C004C0130914D018091500190915101281760
S1131C10390731F410924D0110924C010E941301C6
S1131C208BE290E02BE230E0F90120812F77FC0178
S1131C30208388E290E028E230E0F90120812F7BC4
S1131C40FC01208385E290E025E230E0F901208167
S1131C50277FFC0120830000DF91CF91FF91EF915A
S1131C60BF91AF919F918F917F916F915F914F91B0
S1131C703F912F910F9000925B000F9000925F00B4
S1131C800F901F901895CF93DF93CDB7DEB785E4FF
S1131C9090E025E430E0F90120812260FC012083FA
S1131CA00000DF91CF910895CF93DF93CDB7DEB7D6
S1131CB085E490E025E430E0F90120812D7FFC01EA
S1131CC020830000DF91CF910895CF93DF93CDB7A8
S1131CD0DEB78ADE109255011092540110924F0122
S1131CE010924E01109256011092570110924B011E
S1131CF010924A0110924701109246011092490134
S1131D001092480181EC90E021EC30E0F90120814F
S1131D102068FC01208381EC90E021EC30E0F901A3
S1131D2020812061FC01208384EC90E027E630E0F0
S1131D30FC01318320830000DF91CF9108951F922D
S1131D400F9200905F000F92112400905B000F929D
S1131D502F933F934F935F936F937F938F939F93AF
S1131D60AF93BF93EF93FF93CF93DF931F92CDB7BE
S1131D70DEB7198282E290E022E230E0F90130819C
S1131D8020E12327FC01208380EC90E0FC0180818A
S1131D9089838981882F90E08C719927892B09F098
S1131DA018958091540190915501892B09F03BC0FD
S1131DB0A4D286EC90E0FC018081882F90E090937F
S1131DC04F0180934E0180914E0190914F01892BD8
S1131DD009F457C080914E0190914F010196C4D7E8
S1131DE09093550180935401809154019091550131
S1131DF0892B09F4189510925601209154013091C1
S1131E00550180915601882F90E0820F931F2091F5
S1131E104E0130914F01FC012083809156018F5F68
S1131E20809356012EC02091540130915501809128
S1131E305601882F90E0820F931F26EC30E0F901C1
S1131E402081FC012083809156018F5F809356018D
S1131E508091540190915501FC019081809156012B
S1131E60981779F4209154013091550180914E01D5
S1131E7090914F010196820F931FFC0110821092E2
S1131E80560100000F90DF91CF91FF91EF91BF9128
S1131E90AF919F918F917F916F915F914F913F91FE
S1131EA02F910F9000925B000F9000925F000F90B3
S1131EB01F9018951F920F9200905F000F921124AB
S1131EC08F93CF93DF93CDB7DEB781E08093170173
S1131ED00000DF91CF918F910F9000925F000F90DF
S1131EE01F901895CF93DF9300D000D0CDB7DEB705
S1131EF080914E0190914F0102979C018091540171
S1131F0090915501B901A4D19A8389831C821B82C3
S1131F10209154013091550180914E0190914F01CF
S1131F200297820F931FFC01808191819C838B8394
S1131F3029813A818B819C812817390709F073C064
S1131F40209154013091550180914E0190914F019F
S1131F500297820F931F20E2FC01208320915401F9
S1131F603091550180914E0190914F010197820F5C
S1131F70931F20E2FC01208380915401909155012C
S1131F800196FC018081882F90E08130910541F019
S1131F9085309105E9F0892BF9F4AFD182D079C06D
S1131FA080911D01813089F0DDD28091540190919E
S1131FB05501FC0180812EEF280F809154019091EE
S1131FC055010296622F37DA01C0DAD296D161C088
S1131FD0B9D993D1E3D25DC082E080931801809196
S1131FE04E0190914F01C0D69093470180934601D2
S1131FF080914E0190914F01AC0120915401309198
S113200055018091460190914701B901EED7809125
S11320104E0190914F0190934901809348016DD1F5
S113202040D0000036C081E08093180180914E01B9
S113203090914F01029698D6909347018093460160
S113204080914E0190914F01AC0120915401309147
S113205055018091460190914701B901C6D78091FD
S113206046019091470120914E0130914F01820F1A
S1132070931F29813A81FC013183208380914E0191
S113208090914F010296909349018093480135D174
S113209008D000000F900F900F900F90DF91CF9118
S11320A00895CF93DF93CDB7DEB7AAD107D081E0EF
S11320B0809317010000DF91CF910895CF93DF93B0
S11320C0CDB7DEB727970FB6F894DEBF0FBECDBFEE
S11320D081E090E09A8389832981809148019091DD
S11320E04901820F8B5E8B8325D18B81882F90E0F1
S11320F03BD69D838C838C819D812B81FC01208325
S11321008C819D810196FC0110828C819D810296B7
S11321102091260130912701FC01318320838C8199
S11321209D81049620911E0130911F01FC01318391
S113213020838C819D810696209143013091440136
S1132140FC01318320838C819D81089620911901A3
S113215030911A01FC01318320838C819D810A9680
S113216020912001FC0120838C819D810B9620917C
S11321702E01FC0120838C819D810C9620914501C8
S1132180FC0120838C819D810D9620914101309129
S11321904201FC01318320838C819D810F96209123
S11321A01B0130911C01FC01318320838C819D81B2
S11321B041962091220130912301FC013183208337
S11321C029813A818C819D814396A90168E171E05E
S11321D00CD7109218018091480190914901AC01EB
S11321E0609146017091470189819A8143962C81BF
S11321F03D81820F931FF9D68B81882F90E002973F
S11322009C018C819D81B90123D09F838E838B8116
S1132210882F90E002972C813D81820F931F2E819D
S11322203F81FC01318320838C819D811CDC8130C2
S113223029F08C819D8130D61D821C820000279656
S11322400FB6F894DEBF0FBECDBFDF91CF910895D6
S1132250CF93DF93CDB7DEB727970FB6F894DEBFE1
S11322600FBECDBF9D838C837F836E838FEF9FEFE3
S11322709A8389832EC08C819D819C012F5F3F4F5F
S11322803D832C83FC018081882F90E0982F882740
S113229029813A81822793279A8389831B8216C0D6
S11322A089819A8199234CF489819A81880F991F95
S11322B0F1E28F27F0E19F2704C089819A81880F7A
S11322C0991F9A8389838B818F5F8B838B8188305D
S11322D038F38E819F819C01215031093F832E83E5
S11322E0892B49F689819A8127960FB6F894DEBF27
S11322F00FBECDBFDF91CF910895CF93DF93CDB7BC
S1132300DEB710924F0110924E0110925601809147
S1132310540190915501892B49F080915401909179
S11323205501BAD510925501109254010000DF9165
S1132330CF910895CF93DF93CDB7DEB710925701B5
S113234080914A0190914B01892B49F080914A0177
S113235090914B01A1D510924B0110924A010000BB
S1132360DF91CF910895CF93DF93CDB7DEB710926D
S1132370170180914A0190914B01892B61F4A4DBF0
S113238090934B0180934A0180914A0190914B01B3
S1132390892B09F463D080914A0190914B01FC018F
S11323A09081809157019817B1F086EC90E04091AC
S11323B04A0150914B0120915701222F30E0240F04
S11323C0351FF9012081FC012083809157018F5F23
S11323D08093570111C0AEDF77DB90934B0180935C
S11323E04A0180914A0190914B01892B11F436D016
S11323F003C081E0809317010000DF91CF9108951D
S1132400CF93DF93CDB7DEB71092570181EC90E004
S113241021EC30E0F90120812F7EFC01208381EC46
S113242090E021EC30E0F90120812860FC01208358
S113243081EC90E021EC30E0F90120812064FC0182
S1132440208381EC90E021EC30E0F90120812F77AA
S1132450FC0120830000DF91CF910895CF93DF9397
S1132460CDB7DEB71092560181EC90E021EC30E05C
S1132470F9012081277FFC01208381EC90E021EC8D
S113248030E0F90120812061FC01208381EC90E09F
S113249021EC30E0F90120812068FC01208381ECEB
S11324A090E021EC30E0F90120812F7BFC012083B6
S11324B00000DF91CF910895CF93DF93CDB7DEB7BE
S11324C09FDF82E007D081E0809317010000DF9155
S11324D0CF910895CF93DF9300D000D000D0CDB733
S11324E0DEB78E8384E0898325DF8981882F90E09D
S11324F03BD49B838A838A819B812981FC0120832D
S11325008A819B8101962E81FC0120838981882FF9
S113251090E002979C018A819B81B90199DE9D8399
S11325208C838981882F90E002972A813B81820FD6
S1132530931F2C813D81FC01318320838A819B81FF
S113254092DA813029F08A819B81A6D41B821A8277
S1132550000026960FB6F894DEBF0FBECDBFDF9104
S1132560CF910895CF93DF93CDB7DEB749DF83E0F2
S1132570B1DF81E0809317010000DF91CF910895CE
S1132580CF93DF93CDB7DEB73BDF84E0A3DF81E0F9
S1132590809317010000DF91CF910895CF93DF93CB
S11325A0CDB7DEB72DDF85E095DF81E0809317019D
S11325B00000DF91CF9108955058BB27AA270ED071
S11325C04DC13ED130F043D120F031F49F3F11F49E
S11325D01EF433C10EF4E095E7FB29C1E92F4FD176
S11325E080F3BA17620773078407950718F071F42C
S11325F09EF567C10EF4E0950B2EBA2FA02D0B01AA
S1132600B90190010C01CA01A0011124FF27591B33
S113261099F0593F50F4503E68F11A16F040A22F39
S1132620232F342F4427585FF3CF469537952795AA
S1132630A795F0405395C9F77EF41F16BA0B620BA9
S1132640730B840BBAF09150A1F0FF0FBB1F661FF0
S1132650771F881FC2F70EC0BA0F621F731F841F33
S113266048F4879577956795B795F7959E3F08F059
S1132670B3CF9395880F08F09927EE0F9795879518
S113268008950CD0EBC0E3D040F0DAD030F021F460
S11326905F3F19F0CCC0511115C1CFC0F0D098F3F1
S11326A09923C9F35523B1F3951B550BBB27AA27CF
S11326B062177307840738F09F5F5F4F220F331F41
S11326C0441FAA1FA9F333D00E2E3AF0E0E830D00D
S11326D091505040E695001CCAF729D0FE2F27D010
S11326E0660F771F881FBB1F261737074807AB07DE
S11326F0B0E809F0BB0B802DBF01FF2793585F4F53
S11327002AF09E3F510568F092C0DCC05F3FECF3B5
S1132710983EDCF3869577956795B795F7959F5F17
S1132720C9F7880F911D9695879597F90895E1E06B
S1132730660F771F881FBB1F621773078407BA07CA
S113274020F0621B730B840BBA0BEE1F88F7E09525
S1132750089504D06894B111B5C0089598D088F054
S11327609F5790F0B92F9927B751A0F0D1F0660F79
S1132770771F881F991F1AF0BA95C9F712C0B13094
S113278081F09FD0B1E008959CC0672F782F8827EF
S1132790B85F39F0B93FCCF3869577956795B395D3
S11327A0D9F73EF490958095709561957F4F8F4F42
S11327B09F4F0895E89409C097FB3EF49095809547
S11327C0709561957F4F8F4F9F4F9923A9F0F92FF3
S11327D096E9BB279395F695879577956795B79571
S11327E0F111F8CFFAF4BB0F11F460FF1BC06F5F57
S11327F07F4F8F4F9F4F16C0882311F096E911C069
S1132800772321F09EE8872F762F05C0662371F089
S113281096E8862F70E060E02AF09A95660F771F9D
S1132820881FDAF7880F9695879597F9089597F991
S11328309F6780E870E060E008959FEF80EC089562
S113284000240A941616170618060906089500248B
S11328500A9412161306140605060895092E039405
S1132860000C11F4882352F0BB0F40F4BF2B11F479
S113287060FF04C06F5F7F4F8F4F9F4F089557FDD8
S11328809058440F551F59F05F3F71F04795880FDA
S113289097FB991F61F09F3F79F087950895121671
S11328A013061406551FF2CF4695F1DF08C016161D
S11328B017061806991FF1CF8695710561050894CE
S11328C00895E894BB2766277727CB0197F90895E5
S11328D00BD0C4CFB5DF28F0BADF18F0952309F088
S11328E0A6CFABCF1124EECFCADFA0F3959FD1F3CF
S11328F0950F50E0551F629FF001729FBB27F00DAA
S1132900B11D639FAA27F00DB11DAA1F649F6627FE
S1132910B00DA11D661F829F2227B00DA11D621F4D
S1132920739FB00DA11D621F839FA00D611D221F07
S1132930749F3327A00D611D231F849F600D211DEB
S1132940822F762F6A2F11249F5750408AF0E1F08E
S113295088234AF0EE0FFF1FBB1F661F771F881FD7
S113296091505040A9F79E3F510570F060CFAACF17
S11329705F3FECF3983EDCF3869577956795B795C2
S1132980F795E7959F5FC1F7FE2B880F911D9695EC
S1132990879597F90895FA01EE0FFF1F30962105E8
S11329A0310599F16115710561F48038BFE39B0726
S11329B049F168949038810561F08038BFEF9B0736
S11329C041F0992342F5FF3FE1053105210511F15D
S11329D0E8940894E795D901AA2329F4AB2FBE2FD4
S11329E0F85FD0F310C0FF5F70F4A695E0F7F739F5
S11329F050F019F0FF3A38F49F779F930CD00F9062
S1132A0007FC905808953EF018CF60E070E080E82D
S1132A109FE308954FE79F775F934F933F932F93DF
S1132A2030D12F913F914F915F9152DF67C02FDFDB
S1132A30E0F09E37D8F09639B8F49E3848F4672F02
S1132A40782F8827985FF9CF869577956795939522
S1132A509539D0F3B62FB1706B0F711D811D20F421
S1132A60879577956795939575C08FC02BCF11F493
S1132A700EF4E3CE8AC00BDFD0F39923D9F3CEF35F
S1132A809F57550B87FF8FD00024A0E640EA9001A2
S1132A9080585695979528F4805C660F771F881F99
S1132AA020F026173707480730F4621B730B840B9A
S1132AB0202931294A2BA6951794079420253125DE
S1132AC04A2758F7660F771F881F20F02617370705
S1132AD0480730F4620B730B840B200D311D411D2C
S1132AE0A09581F7B901842F9158880F9695879501
S1132AF0089519F40EF09BCEE4CE9FCEC8DEC8F341
S1132B009638C0F707F80F92E8942BE33AEA48EBBB
S1132B105FE7ECDE0F920F920F924DB75EB70F9204
S1132B20F0D0ECE8F0E046D04F915F91EF91FF9147
S1132B30E595EE1FFF1F49F0FE57E0684427EE0FAE
S1132B40441FFA95E1F74195550B62D00F9007FEAB
S1132B5056C00895882371F4772321F09850872B69
S1132B60762F07C0662311F499270DC09051862B48
S1132B7070E060E02AF09A95660F771F881FDAF7F5
S1132B80880F9695879597F908959F3F31F0915056
S1132B9020F4879577956795B795880F911D96953D
S1132BA0879597F9089591505040660F771F881FB5
S1132BB0D2F70895DF93CF931F930F93FF92EF9271
S1132BC0DF927B018C01689405C0DA2EEF018CDE64
S1132BD0FE01E894A5912591359145915591AEF367
S1132BE0EF01FCDCFE019701A801DA9479F7DF908C
S1132BF0EF90FF900F911F91CF91DF9108959B016A
S1132C00AC0160E070E080E89FE33BCD10CEBDCF27
S1132C103EDEE8F39923D9F3940F511DBBF3915091
S1132C20504094F059F0882332F0660F771F881FC4
S1132C3091505040C1F79E3F510544F7880F911DB4
S1132C409695879597F908955F3FACF0983E9CF070
S1132C50BB27869577956795B79508F4B1609395EA
S1132C60C1F7BB0F58F711F460FFE8CF6F5F7F4FD8
S1132C708F4F9F4FE3CF26CE0EF087CFDECD6894E3
S1132C80D6CD05DEC8F39923D1F3C6F3DF93CF93F2
S1132C901F930F93FF92C92FDD2788232AF02197D2
S1132CA0660F771F881FDAF720E030E040E85FEB1B
S1132CB09FE3883920F0803E30F021968F777DDCC9
S1132CC0E4EBF0E003C079DCE1EEF0E073DF8B01CC
S1132CD0BE01EC01FB2E6F5771097595771F880BA8
S1132CE0990B6ADD28E132E741E35FE3FDDDAF2DB7
S1132CF09801AE01FF900F911F91CF91DF916EDC8F
S1132D00ADCDFA01DC01AA0FBB1F9B01AC01BF577B
S1132D1028F422273327442750781FC0B75188F45A
S1132D20AB2F0024469537952795011CA395D2F324
S1132D30002069F0220F331F441FB395DAF30DD03E
S1132D403BCC61307105A0E88A07B94630F49B0199
S1132D50AC016627772788279078309621F0208366
S1132D6031834283538308950F931F93CF93DF934B
S1132D708230910510F482E090E0E0915C01F091E2
S1132D805D0120E030E0A0E0B0E0309719F140812F
S1132D9051810281138148175907C8F08417950798
S1132DA069F4109731F012960C93129713961C93B2
S1132DB027C000935C0110935D0122C021153105E9
S1132DC019F04217530718F49A01BD01EF01DF010E
S1132DD0F801DBCF21153105F9F0281B390B24301C
S1132DE0310580F48A819B816115710521F0FB0115
S1132DF09383828304C090935D0180935C01FE0100
S1132E00329644C0FE01E20FF31F81939193225046
S1132E103109398328833AC020915A0130915B01EA
S1132E20232B41F4209102013091030130935B0183
S1132E3020935A012091000130910101211531059F
S1132E4041F42DB73EB74091040150910501241B74
S1132E50350BE0915A01F0915B01E217F307A0F4FE
S1132E602E1B3F0B2817390778F0AC014E5F5F4FDC
S1132E702417350748F04E0F5F1F50935B014093B2
S1132E805A018193919302C0E0E0F0E0CF01DF9119
S1132E90CF911F910F910895CF93DF93009709F479
S1132EA081C0FC01329713821282A0915C01B0911F
S1132EB05D01109781F420813181820F931F20914D
S1132EC05A0130915B012817390751F5F0935B01E2
S1132ED0E0935A0167C0ED0120E030E0CE17DF0730
S1132EE040F44A815B819E0141155105F1F0EA01EC
S1132EF0F5CFD383C28340815181840F951FC817B6
S1132F00D90759F488819981840F951F029691837A
S1132F1080838A819B81938382832115310529F4DF
S1132F20F0935D01E0935C013DC0E901FB83EA831A
S1132F3049915991C40FD51FEC17FD0761F48081A5
S1132F409181840F951F0296E90199838883828178
S1132F5093819B838A83E0E0F0E012968D919C91AB
S1132F601397009719F0FD01DC01F7CF8D919C9127
S1132F7011979D012E5F3F4F820F931F20915A019D
S1132F8030915B012817390769F4309729F41092BE
S1132F905D0110925C0102C013821282B0935B0146
S1132FA0A0935A01DF91CF9108956627772739C0FE
S1132FB0FC0188279927E89421912032E9F32930EC
S1132FC010F02E30C8F32B3239F02D3231F46894DE
S1132FD003C01FD0820F911D219120532A30C8F3C2
S1132FE01EF4909581959F4F0895FB01DC0102C06A
S1132FF001900D9241505040D8F70895FC01819101
S1133000861721F08823D9F7992708953197CF019E
S113301008957AE0979F902D879F802D910D11241C
S113302008958F929F92AF92BF92CF92DF92EF92C8
S1133030FF920F931F93CF93DF93EC016B01611504
S1133040710519F0FB01918380837E01FFEFEF1A74
S1133050FF0A0881802F90E037D1892B11F0E70116
S1133060F4CF0D3239F47E0182E0E80EF11C0981BF
S113307011E008C00B3229F47E0192E0E90EF11C44
S1133080098110E0E701219743E050E066E171E037
S1133090CE0122D1892BB9F4239645E050E061E1B9
S11330A071E0CE0119D1892B09F42596C114D104FC
S11330B019F0F601D183C0831111F0C060E070E013
S11330C080E89FE7F4C043E050E06EE071E0CE0199
S11330D003D1892B59F4C114D10409F4E4C0F2E0FA
S11330E0EF0EF11CF601F182E082DDC020E030E059
S11330F0A901C0E0D0E0F70160EDA62EA00E89E0A2
S11331008A1528F1912F9260B92E812F887012FFB1
S113311004C0811123C0219621C081112197A5E00B
S1133120B0E01DD1DC01CB01880F991FAA1FBB1F82
S11331309C01AD012A0D311D411D511D283989E91C
S11331403807480789E1580748F0166006C09EEF23
S1133150A9120AC013FD40C01860B12E8FEFE81AFF
S1133160F80A00811B2DC7CF802F8F7D8534A1F5F0
S113317080818D3211F4106106C08B3221F03196BA
S113318061E070E004C08181329662E070E08053B7
S11331908A3018F0E61BF70B1FC060E070E060385F
S11331A09CE079075CF4DB01AA0FBB1FAA0FBB1FCD
S11331B06A0F7B1F660F771F680F711D3196DF0141
S11331C011978C9180538A3050F314FF03C071958A
S11331D061957109C60FD71F11FF08C0C114D1042E
S11331E029F0CF010197F60191838083CA01B901C7
S11331F0E1DA212F2370233019F04B015C0106C062
S11332004B015C01B7FAB094B7F8B09420E030E019
S1133210A901C501B40178D0882309F43CC0D7FFC3
S113322006C0D195C195D1090DE211E002C005E4B3
S113323011E06801F8E1CF1AD10890E2E92EF12CEF
S1133240CE15DF056CF0F801259135914591549127
S1133250C501B4013DDB4B015C01CE19DF09F0CFA0
S113326004501109F594E7940C151D0549F78A2DAE
S1133270880F8B2D881F8F3F41F020E030E0A9019B
S1133280C501B40141D0811106C082E290E090935F
S11332905F0180935E01C501B40109C060E070E084
S11332A080E89FEF04C060E070E080EC9FE7DF916E
S11332B0CF911F910F91FF90EF90DF90CF90BF902F
S11332C0AF909F908F900895911146C0803219F06D
S11332D089508550D0F70895FB01DC0141505040DE
S11332E088F08D9181341CF08B350CF4805E6591EF
S11332F061341CF06B350CF4605E861B611171F354
S1133300990B0895881BFCCF03D008F481E008953D
S1133310990F0008550FAA0BE0E8FEEF16161706E2
S1133320E807F907C0F012161306E407F50798F04A
S1133330621B730B840B950B39F40A2661F0232B63
S1133340242B252B21F408950A2609F4A140A695DF
S11333508FEF811D811D089599278827089509D02D
S1133360A59F900DB49F900DA49F800D911D1124D5
S11333700895A29FB001B39FC001A39F700D811D4A
S11333801124911DB29F700D811D1124911D08956A
S1073390F894FFCFDB
S1133394000060012000D007D007D007D007020244
S9030000FC
